:020000040800F2
:10000000E8120020954400088103000883030008DB
:10001000870300088B0300088F030008000000001E
:100020000000000000000000000000009303000832
:1000300095030008000000009703000899030008DA
:10004000AF440008AF440008AF440008AF440008C4
:10005000AF440008AF440008AF440008AF440008B4
:10006000AF440008AF440008AF440008AF440008A4
:10007000AF440008AF440008AF440008AF44000894
:10008000AF440008AF440008AF440008AF44000884
:10009000AF440008AF440008AF440008AF44000874
:1000A000AF440008AF440008AF440008AF44000864
:1000B000AF440008AF440008AF440008AF44000854
:1000C000AF440008AF440008AF440008AF44000844
:1000D000AF440008D33D0008EB3E00081744000879
:1000E000AF440008AF440008AF440008AF44000824
:1000F000AF440008AF440008AF440008AF44000814
:10010000AF440008AF440008AF440008AF44000803
:10011000AF440008AF440008AF440008AF440008F3
:10012000AF440008AF440008AF440008AF440008E3
:1001300000F002F800F067F80AA090E8000C824492
:100140008344AAF10107DA4501D100F05CF8AFF26F
:10015000090EBAE80F0013F0010F18BFFB1A43F0A5
:10016000010318479C840000BC8400000A444FF03F
:10017000000C10F8013B13F0070408BF10F8014B06
:100180001D1108BF10F8015B641E05D010F8016B4B
:10019000641E01F8016BF9D113F0080F1EBF10F8AF
:1001A000014BAD1C0C1B09D16D1E58BF01F801CBD2
:1001B000FAD505E014F8016B01F8016B6D1EF9D555
:1001C0009142D6D37047000000230024002500266A
:1001D000103A28BF78C1FBD8520728BF30C148BFAA
:1001E0000B607047662907F0B285002070471FB585
:1001F00006F0D8F804000020002106F039FEE06087
:100200001FBD10B510BD06F0E9F91146FFF7EFFF6D
:1002100000F008F806F007FA03B4FFF7F2FF03BC9A
:1002200003F07CFD03F010FD4FF4A06004F052F9E0
:100230004FF4165003F081FD4FF4E13003F006FE59
:100240004FF4165004F025F800F098F900F0BCF9CE
:1002500000F034FB03F0C6FA02F050FE03F049FB55
:1002600000F056FB00F0DEFB00F01AFA472140F2E6
:10027000E73000F0BBFA40F2CF2141F2883002F0C3
:1002800023FC40F2CF2140F2CF7003F093FC02F048
:1002900037FC40F2D6612F4805F0D2FB40F2D66120
:1002A0002C4805F0CFFB00202B49086050E003F0FC
:1002B000ACFB1021294804F06EFAB8B900F03CFC00
:1002C00000F09AFC01F0A9FE00F056FF02F06AF877
:1002D00000F092FC01F0A1FE00F04EFF02F062F887
:1002E00000F08AFC01F099FE01F00BFA40211B4856
:1002F00004F051FAB8B900F01FFC00F07DFC02F0E8
:1003000074F900F039FF02F0AAFA00F075FC02F06F
:100310006CF900F031FF02F0A2FA00F06DFC02F07F
:1003200064F901F0EEF90E480068C0430D49C1F8C8
:100330009401642003F0C5FC02F0CCFC0A4800687C
:1003400007F0A2FA044622460B4608A005F0C4FDB9
:10035000ADE70000000400409481214200140140F8
:1003600094012342000023427C00002044697374FE
:10037000616E63655F494E3A256620636D0D0A0024
:10038000704700BFFEE700BFFEE700BFFEE700BF0B
:10039000FEE7704770477047704700000CB50020BB
:1003A000019000906C48006840F480306A49086011
:1003B00000BF6948006800F4003000900198401CBC
:1003C0000190009818B90198B0F5A06FF1D162487A
:1003D000006800F4003010B10120009001E000201E
:1003E00000900098012843D15C48006840F010005C
:1003F0005A4908600846006820F003000860084673
:10040000006840F002000860534840685249486064
:100410000846406848600846406840F4806048608C
:100420000846406820F47C1048600846406840F464
:10043000E81048600846006840F08070086000BF1F
:100440004548006800F000700028F9D04248406834
:1004500020F00300404948600846406840F0020030
:10046000486000BF3C48406800F00C000828F9D103
:100470000CBD10B5FFF792FF10BD10B536480068EF
:1004800040F001003449086008464068344908409B
:100490003149486008460068324908402E490860E2
:1004A0000846006820F4802008600846406820F470
:1004B000FE0048604FF41F008860FFF7DAFF4FF03E
:1004C00000602949086010BD10B5002100200022FD
:1004D000214B5B6803F00C0121B1042906D00829E7
:1004E00028D107E0214B224C236027E01F4B204CF2
:1004F000236023E0184B5B6803F47010164B5B68B5
:1005000003F48032022303EB904022B9194B43439A
:10051000174C23600DE0104B5B6803F4003323B1EC
:10052000144B4343124C236003E0104B4343104CE5
:10053000236003E00D4B0E4C236000BF00BF064B51
:100540005B68C3F303130C4CE15C094B1B68CB40A5
:10055000074C236010BD0000001002400020024044
:100560000000FFF8FFFFF6FE08ED00E000127A0041
:100570000000002000093D000400002008B5012112
:10058000482004F031FB2020ADF8000010208DF849
:10059000030003208DF802006946094804F068F85A
:1005A0002021074804F011F92020ADF80000694629
:1005B000044804F05DF82021024804F006F908BD63
:1005C000000C01400018014008B50121442004F04E
:1005D0000BFB1820ADF8000048208DF80300694699
:1005E0002C4804F045F80120ADF8000028208DF8D3
:1005F00003006946284804F03BF808BD10B50446DE
:1006000014B10120254908702448007858B31021FE
:10061000204804F0C0F850B108211E4804F0BBF88F
:1006200028B101211C4804F0B6F801281BD10A208A
:1006300003F047FB0020194908701021154804F009
:10064000AAF808B9012010BD0821124804F0A3F847
:1006500008B90220F7E701210F4804F09CF80128AF
:1006600015D10320EFE710210A4804F094F801287F
:100670000DD10821074804F08EF8012807D1012187
:10068000054804F088F810B90120044908700020DA
:10069000D9E70000001801400008014014000020C4
:1006A00008B50121402004F09FFA10208DF80300C6
:1006B0004FF47F40ADF8000003208DF8020069463A
:1006C000474803F0D5FF4FF47F41454804F07FF8D9
:1006D00008BDD0B90121434A11600021424AC2F845
:1006E000A41101213F4A083211600021121D11603E
:1006F0000121121D11600021121D11600121121D26
:1007000011600021384AC2F8BC1101281AD1002119
:10071000344A11600121344AC2F8A4110021314A3F
:10072000083211600121121D11600021121D11609B
:100730000121121D11600021121D116001212A4AA0
:10074000C2F8BC11022818D10021264A11600121EB
:10075000254AC2F8A411234A083211600021121D53
:1007600011600121121D11600021121D1160121D66
:10077000116001211C4AC2F8BC11032818D10121C3
:10078000184A11600021184AC2F8A411154A08320B
:1007900011600121121D11600021121D1160012143
:1007A000121D1160121D116000210F4AC2F8BC1108
:1007B000042813D100210B4A11600B4AC2F8A4117E
:1007C000084A08321160121D1160121D1160121DBD
:1007D0001160121D1160044AC2F8BC11704700007C
:1007E00000180140A00123420000234230B589B027
:1007F00005460C460121042004F003FA01212120C2
:1008000004F0F2F90121080304F003F84FF47040FA
:10081000ADF8200018208DF8230003208DF8220069
:1008200008A9244803F024FFADF81850ADF814408F
:100830000020ADF81A00ADF8160005A91E4804F016
:100840000BFB7020ADF804000120ADF8060000207D
:10085000ADF80A00ADF80C0001A9174804F039FB07
:1008600001A9154804F077FB01A9134804F0C0FB67
:1008700001A9114804F007FC08210F4804F078FF93
:1008800008210D4804F07DFF08210B4804F086FF85
:100890000821094804F08BFF0121074804F044FEB9
:1008A0000121054804F034FF0121034804F030FE23
:1008B00009B030BD001401400008004008B5012116
:1008C000202004F091F95520ADF8000004208DF8A7
:1008D000030003208DF8020069460B4803F0C8FEB0
:1008E00008BD08B50121042004F07EF96020ADF8B0
:1008F000000048208DF8030003208DF802006946AF
:10090000024803F0B5FE08BD001401400008014094
:1009100000204149086048608860C860086108623A
:100920003E4848614FF0804088613D48C86170474B
:100930002DE9F84F04460D46374805622646016901
:10094000204606F0CDFF009033480169204607F0AD
:1009500089F98046304804610146C869414607F07C
:10096000B5F881462C498869009907F0AFF88246AE
:1009700029494869314607F0A9F88346514606F0EF
:10098000AFFF0746494606F0ABFF234948600A46D9
:100990005168106A07F066F91F4908620846006A44
:1009A000BDE8F88F2DE9F84F04460D461A48056258
:1009B00026460169204606F093FF0090164801691B
:1009C000204607F04FF98046134804610146C86984
:1009D000414607F07BF881460F498869009907F086
:1009E00075F882460C494869314607F06FF883462E
:1009F000514606F075FF0746494606F071FF064965
:100A000048600A465168106A06F06AFF02490862A7
:100A10000846006ABDE8F88F480700200000F04251
:100A20000000A04100204149086048608860C8601B
:100A3000086108623E4848614FF07E5088613D4839
:100A4000C86170472DE9F84F04460D4637480562E6
:100A500026460169204606F043FF009033480169AD
:100A6000204607F0FFF88046304804610146C86917
:100A7000414607F02BF881462C498869009907F018
:100A800025F8824629494869314607F01FF8834610
:100A9000514606F025FF0746494606F021FF234947
:100AA00048600A465168106A07F0DCF81F4908627E
:100AB0000846006ABDE8F88F2DE9F84F04460D4658
:100AC0001A48056226460169204606F009FF009093
:100AD00016480169204607F0C5F8804613480461AE
:100AE0000146C869414606F0F1FF81460F49886911
:100AF000009906F0EBFF82460C494869314606F042
:100B0000E5FF8346514606F0EBFE0746494606F0F0
:100B1000E7FE064948600A465168106A06F0E0FEA2
:100B2000024908620846006ABDE8F88F6C07002099
:100B300000008C420000204110B55AE002F065FF31
:100B40000020FFF7C6FDFE49FE480068FFF7F0FEF3
:100B5000044606F033FFFC490860F949F94800688B
:100B6000FFF720FF044606F029FFF8490860F64821
:100B700000681E2802DA1E20F3490860F248006867
:100B800040F2EE21884202DD0846EF490860EF4856
:100B900000681E2802DA1E20EC490860EB48006855
:100BA00040F2EE21884202DD0846E8490860E64846
:100BB000008881B2E64804F043FFE448008881B22F
:100BC000E34804F03FFFE048008881B2E04804F0C9
:100BD0003BFFDE48008881B2DD4804F037FF012189
:100BE000DC4803F0D8FD20B94FF4C87003F069F871
:100BF00000E0A3E700BF10BD70B51BE102F005FFE8
:100C00000121D44803F0C7FD00287DD10421D1483B
:100C100003F0C1FD0128F8D10020FFF75AFD02F0D2
:100C20005EF8CD49C7480068FFF782FE044606F02B
:100C3000C5FEC5490860C849C2480068FFF7B2FE52
:100C4000044606F0BBFEC1490860C449C4480068B8
:100C500006F008FF7ED2BC48006806F0EBFE0546B1
:100C6000C049BF48006806F0FDFF06462946FFF769
:100C700023FF044606F0A2FEBB490860B3480068A3
:100C800006F0D8FE0546B749B548006806F0EAFF09
:100C900006462946FFF7D6FE044606F08FFEB34906
:100CA0000860A948006806F0C5FE0546AD49AC4895
:100CB000006806F0D7FF06462946FFF7C3FE044644
:100CC00006F07CFEAA490860A048006806F0B2FE63
:100CD0000546A449A248006806F0C4FF0646294616
:100CE000FFF7EAFE044606F069FEA24908609E4846
:100CF00000681E2802DA1E209B4908609A48006896
:100D000040F2EE21884200E086E002DD0846964986
:100D10000860964800681E2802DA1E209349086081
:100D20009248006840F2EE21884202DD08468F4971
:100D300008608F4800681E2802DA1E208C4908606F
:100D40008B48006840F2EE21884202DD084688495F
:100D5000086000E028E0874800681E2802DA1E20AC
:100D6000844908608348006840F2EE21884202DD31
:100D70000846804908607C48008881B2744804F0C5
:100D80005FFE7A48008881B2714804F05BFE7848C3
:100D9000008881B26E4804F057FE7648008881B220
:100DA0006B4804F053FE37E0674800681E2802DAFB
:100DB0001E20654908606448006840F2EE218842C0
:100DC00002DD084660490860604800681E2802DAB3
:100DD0001E205E4908605D48006840F2EE218842AE
:100DE00002DD0846594908605748008881B25848D2
:100DF00004F026FE5548008881B2554804F022FED2
:100E00005148008881B2524804F01EFE4F480088C5
:100E100081B24F4804F01AFE01214E4803F0BBFC9A
:100E200040B904214B4803F0B6FC18B9642002F025
:100E300048FF00E0E2E600BF3CE102F0E6FD0121F0
:100E4000444803F0A8FC002878D10421414803F06D
:100E5000A2FC0028F8D1FFF73CFC01F040FF3E491E
:100E600038480068FFF764FD044606F0A7FD3649E0
:100E70000860394933480068FFF794FD044606F0DE
:100E80009DFD3249086035493548006806F0EAFDA5
:100E900055D22D48006806F0CDFD05463149304851
:100EA000006806F0DFFE06462946FFF705FE044609
:100EB00006F084FD2C4908602448006806F0BAFD5D
:100EC000054628492648006806F0CCFE0646294615
:100ED000FFF7B8FD044606F071FD244908601A4882
:100EE000006806F0A7FD05461E491D48006806F08B
:100EF000B9FE06462946FFF7A5FD044606F05EFD4D
:100F00001B4908601148006806F094FD0546154924
:100F10001348006806F0A6FE06462946FFF7CCFDFA
:100F2000044606F04BFD134908600F4800681E2870
:100F300002DA1E200C4908600B481DE0A5E06CE0B9
:100F4000000048431007002030000020340000203B
:100F500000080040001401400000AF430000604161
:100F6000800000200000E0404000002044000020FD
:100F7000480000204C000020006840F2EE2188422A
:100F800002DD0846FE490860FE4800681E2802DAB5
:100F90001E20FC490860FB48006840F2EE218842B0
:100FA00002DD0846F7490860F74800681E2802DAA3
:100FB0001E20F5490860F448006840F2EE2188429E
:100FC00002DD0846F0490860F04800681E2802DA91
:100FD0001E20EE490860ED48006840F2EE2188428C
:100FE00002DD0846E9490860E548008881B2E84822
:100FF00004F026FDE348008881B2E54804F022FDB4
:10100000E148008881B2E24804F01EFDDF48008814
:1010100081B2DF4804F01AFD37E0DE4800681E2880
:1010200002DA1E20DB490860DA48006840F2EE214F
:10103000884202DD0846D7490860D74800681E2864
:1010400002DA1E20D4490860D348006840F2EE213D
:10105000884202DD0846D0490860CE48008881B247
:10106000CB4804F0EDFCCC48008881B2C84804F0BD
:10107000E9FCC848008881B2C54804F0E5FCC648D0
:10108000008881B2C24804F0E1FC0121C34803F0AA
:1010900082FB78B90421C14803F07DFB012809D106
:1010A0001E2002F00EFE0420FFF713FB962002F034
:1010B00008FE00E0C1E600BF5BE002F0A6FC1021E4
:1010C000B64803F068FB01284FD10320FFF701FB6E
:1010D000B349B4480068FFF72BFC044606F06EFCE9
:1010E000B1490860AE49AF480068FFF75BFC0446B1
:1010F00006F064FCAD490860AB4800681E2802DABF
:101100001E20A9490860A848006840F2EE218842E4
:1011100002DD0846A4490860A44800681E2802DAD7
:101120001E20A2490860A148006840F2EE218842D2
:1011300002DD08469D4908609B48008881B29448BA
:1011400004F07EFC9848008881B2914804F07AFC53
:101150009648008881B28E4804F076FC9348008857
:1011600081B28B4804F072FC03E0642002F0A9FD18
:1011700000E0A2E700BF70BD70B53BE102F045FCA6
:101180000121864803F007FB01287DD10421834813
:1011900003F001FB0028F8D1FFF79BFA01F0A4FD52
:1011A000834980480068FFF7C3FB044606F006FC4D
:1011B000784908607E497B480068FFF7F3FB0446E6
:1011C00006F0FCFB744908607A497B48006806F029
:1011D00049FC7DD26F48006806F02CFC0546774933
:1011E0007548006806F03EFD06462946FFF72AFCD2
:1011F000044606F0E3FB624908606748006806F0B1
:1012000019FC05466D496C48006806F02BFD064642
:101210002946FFF751FC044606F0D0FB5949086007
:101220005C48006806F006FC0546644962480068B0
:1012300006F018FD06462946FFF73EFC044606F078
:10124000BDFB514908605448006806F0F3FB0546B1
:101250005A495948006806F005FD06462946FFF739
:10126000F1FB044606F0AAFB4849086044480068C0
:101270001E2802DA1E20424908604148006840F2F8
:10128000EE21884204DD00E0A6E008463C49086003
:101290003C4800681E2802DA1E203A490860394896
:1012A000006840F2EE21884202DD084635490860B8
:1012B000354800681E2802DA1E203349086032488B
:1012C000006840F2EE21884204DD08462E4900E025
:1012D00029E008602D4800681E2802DA1E202B49EC
:1012E00008602A48006840F2EE21884202DD084684
:1012F000264908602248008881B2254804F0A0FBF6
:101300002048008881B2224804F09CFB1E480088D7
:1013100081B21F4804F098FB1C48008881B21C4829
:1013200004F094FB58E01B4800681E2802DA1E20D7
:10133000184908601748006840F2EE21884202DD33
:10134000084614490860144800681E2802DA1E2066
:10135000114908601048006840F2EE21884202DD21
:1013600008460D4908600B48008881B2084804F01F
:1013700067FB0948008881B2054804F063FB1FE061
:101380004000002044000020480000204C000020C5
:10139000000800403000002034000020001401400C
:1013A0000000C84310070020380000203C00002047
:1013B0000000AF4300006041840000200000E040D6
:1013C000FD48008881B2FD4804F03EFBFC480088DF
:1013D00081B2FA4804F03AFB0121FA4803F0DBF944
:1013E00040B90421F74803F0D6F918B9C82002F033
:1013F00068FC00E0C2E600BF21E102F006FB01212B
:10140000F04803F0C8F900287ED10421ED4803F02C
:10141000C2F90028F8D1FFF75CF901F065FCEA4950
:10142000EA480068FFF784FA044606F0C7FAE24982
:101430000860E549E5480068FFF7B4FA044606F09D
:10144000BDFADF490860E249E248006806F00AFB9D
:101450007ED2D948006806F0EDFA0546DE49DD483F
:10146000006806F0FFFB06462946FFF7EBFA044644
:1014700006F0A4FAD9490860D148006806F0DAFA03
:101480000546D549D348006806F0ECFB06462946D8
:10149000FFF712FB044606F091FAD1490860C648EE
:1014A000006806F0C7FA0546CB49CA48006806F04E
:1014B000D9FB06462946FFF7FFFA044606F07EFAF6
:1014C000C8490860BE48006806F0B4FA0546C2493B
:1014D000C048006806F0C6FB06462946FFF7B2FA88
:1014E000044606F06BFAC0490860BC4800681E2834
:1014F00002DA1E20B9490860B848006840F2EE21BF
:10150000884204DD084600E084E0B4490860B4483D
:1015100000681E2802DA1E20B1490860B048006841
:1015200040F2EE21884202DD0846AD490860AD4830
:1015300000681E2802DA1E20AA490860A94800682F
:1015400040F2EE21884202DD0846A649086000E02C
:1015500028E0A54800681E2802DA1E20A24908607B
:10156000A148006840F2EE21884202DD08469E490B
:1015700008609A48008881B2904804F061FA98485F
:10158000008881B28D4804F05DFA9648008881B2E7
:101590008A4804F059FA9448008881B2874804F0D8
:1015A00055FA37E0844800681E2802DA1E20824976
:1015B00008608148006840F2EE21884202DD08465A
:1015C0007D4908607E4800681E2802DA1E207C499A
:1015D00008607B48006840F2EE21884202DD084640
:1015E000774908607448008881B2744804F028FA8A
:1015F0007348008881B2714804F024FA6E4800886C
:1016000081B26E4804F020FA6D48008881B26B48C0
:1016100004F01CFA01216B4803F0BDF801280ED13B
:101620000421684803F0B7F848B90A2002F049FBE2
:101630000420FFF74EF8962002F043FB00E0DCE6C2
:1016400000BF5BE002F0E1F940215E4803F0A3F83F
:1016500001284FD10220FFF73CF864495B4800683D
:10166000FFF7A0F9044606F0A9F9614908605F494F
:1016700056480068FFF75CF9044606F09FF95D499B
:1016800008605B4800681E2802DA1E20584908607E
:101690005748006840F2EE21884202DD084654496E
:1016A0000860544800681E2802DA1E20514908606C
:1016B0005048006840F2EE21884202DD08464D495C
:1016C00008604B48008881B23C4804F0B9F94848AA
:1016D000008881B2394804F0B5F94648008881B2E3
:1016E000364804F0B1F94348008881B2334804F029
:1016F000ADF903E0642002F0E4FA00E0A2E700BFE5
:1017000070BD70B57EE002F080F940212D4803F0F5
:1017100042F8012872D10220FEF7DBFF36492B4840
:101720000068FFF73FF9044606F048F930490860C1
:10173000314926480068FFF7FBF8044606F03EF9F9
:101740002C4908602A4800681E2802DA1E20284911
:1017500008602748006840F2EE21884202DD084612
:1017600023490860234800681E2802DA1E20214908
:1017700008602048006840F2EE21884202DD0846F9
:101780001C4908601A48008881B20C4804F058F9D6
:101790001748008881B2094804F054F915480088B8
:1017A00081B2064804F050F91248008881B203481B
:1017B00004F04CF926E021E0300000200008004051
:1017C00034000020001401400000AF431007002047
:1017D00000006041840000200000E0404000002044
:1017E00044000020480000204C0000200000FA4384
:1017F000380000203C0000200000C843C82002F050
:1018000060FA00E07FE700BF15E102F0FEF8022079
:10181000FEF75FFF01F05EFAFD49FE480068FFF742
:10182000C1F8044606F0CAF8FB490860F849F948CF
:101830000068FFF77DF8044606F0C0F8F749086035
:10184000F749F848006806F00DF97DD2F2480068C3
:1018500006F0F0F80546F449F248006806F002FA8E
:1018600006462946FFF728F9044606F0A7F8EF498F
:101870000860E948006806F0DDF80546EA49E948ED
:10188000006806F0EFF906462946FFF7DBF8044644
:1018900006F094F8E6490860E048006806F0CAF8E7
:1018A0000546E149DF48006806F0DCF906462946AE
:1018B000FFF7C8F8044606F081F8DE490860D7480B
:1018C000006806F0B7F80546D749D648006806F024
:1018D000C9F906462946FFF7EFF8044606F06EF808
:1018E000D5490860D14800681E2802DA1E20CF4979
:1018F0000860CE48006840F2EE21884202DD0846CA
:10190000CA490860CA4800681E2802DA1E20C84971
:101910000860C748006840F2EE21884202DD0846B0
:10192000C3490860C34800681E2802DA1E20C14966
:101930000860C048006840F2EE21884202DD084697
:10194000BC490860BC4800E027E000681E2802DAB5
:101950001E20B9490860B848006840F2EE2188426C
:1019600002DD0846B4490860B048008881B2B34837
:1019700004F066F8AE48008881B2B04804F062F81E
:10198000AC48008881B2AD4804F05EF8AA480088EF
:1019900081B2AA4804F05AF837E09F4800681E2830
:1019A00002DA1E209C4908609B48006840F2EE2144
:1019B000884202DD084698490860984800681E2859
:1019C00002DA1E20954908609448006840F2EE2132
:1019D000884202DD0846914908608F48008881B23C
:1019E000964804F02DF88C48008881B2934804F0A2
:1019F00029F88A48008881B2904804F025F8874881
:101A0000008881B28D4804F021F840218C4802F012
:101A1000C2FE01280FD11021894802F0BCFE012826
:101A200009D1282002F04DF90420FEF752FE96203D
:101A300002F047F900E0E8E600BF3CE101F0E5FF15
:101A400001217F4802F0A7FE00287DD10120FEF78A
:101A500040FE01F044F97B496E480068FEF7A2FFA2
:101A6000044605F0ABFF784908607649694800688C
:101A7000FEF75EFF044605F0A1FF7449086068495F
:101A80007348006805F0EEFF7ED26F48006805F0ED
:101A9000D1FF05466F496E48006806F0E3F8064638
:101AA0002946FEF7CFFF044605F088FF5F4908602E
:101AB0006648006805F0BEFF054666496448006850
:101AC00006F0D0F806462946FEF7F6FF044605F074
:101AD00075FF574908605C48006805F0ABFF054694
:101AE0005C495B48006806F0BDF806462946FEF7EB
:101AF000E3FF044605F062FF4E4908605348006862
:101B000005F098FF054653495148006806F0AAF8C9
:101B100006462946FEF796FF044605F04FFF464964
:101B20000860424800681E2802DA1E203F4908600B
:101B30003E48006840F2EE21884202DD08463B49FB
:101B400008603B48006800E0A6E01E2802DA1E207C
:101B5000374908603648006840F2EE21884202DDCD
:101B6000084633490860334800681E2802DA1E2000
:101B7000304908602F48006840F2EE21884202DDBB
:101B800008462C49086000E028E02B4800681E2821
:101B900002DA1E20284908602748006840F2EE213A
:101BA000884202DD0846244908602048008881B246
:101BB000224803F045FF1E48008881B21F4803F009
:101BC00041FF1C48008881B21C4803F03DFF1A48C1
:101BD000008881B2194803F039FF6CE01A480068A8
:101BE0001E2802DA1E20184908601748006840F2D3
:101BF000EE21884202DD0846134908601348006858
:101C00001E2802DA1E20114908601048006823E0EF
:101C10000000964310070020380000203C00002000
:101C2000000060417C000020000050414000002086
:101C300044000020480000204C0000200008004024
:101C40000014014000004843300000203400002010
:101C5000800000200000E04040F2EE21884202DDDA
:101C60000846A3490860A348008881B2A24803F04F
:101C7000E7FE9F48008881B29F4803F0E3FE9D483D
:101C8000008881B29C4803F0DFFE9948008881B249
:101C9000994803F0DBFE0EE0502002F012F8042019
:101CA000FEF717FD962002F00CF840F2D66193483B
:101CB00003F0C8FE00E0C1E600BF70BD2DE9F047AB
:101CC0004FF4487600250DE1002406E10120FEF7DF
:101CD00000FD01F004F8304605F0ACFE80464146B8
:101CE00087480068FEF75EFE074605F067FE8149FB
:101CF0000860304605F09EFE8046414680480068F8
:101D0000FEF716FE074605F059FE794908607D4941
:101D10007D48006805F0A6FE7ED27648006805F092
:101D200089FE804679497848006805F09BFF814626
:101D30004146FEF787FE074605F040FE74490860FD
:101D40006B48006805F076FE804670496E48006872
:101D500005F088FF81464146FEF7AEFE074605F0D6
:101D60002DFE6C4908606348006805F063FE8046FC
:101D700066496548006805F075FF81464146FEF7F3
:101D80009BFE074605F01AFE634908605848006844
:101D900005F050FE80465D495B48006805F062FF33
:101DA00081464146FEF74EFE074605F007FE5B49B9
:101DB0000860574800681E2802DA1E20544908604F
:101DC0005348006840F2EE21884202DD084650493F
:101DD0000860504800681E2802DA1E204D4908603D
:101DE0004C48006840F2EE21884202DD084649492D
:101DF0000860494800681E2802DA1E20464908602B
:101E00004548006840F2EE21884202DD084642491A
:101E100008604248006800E026E01E2802DA1E2022
:101E20003E4908603D48006840F2EE21884202DDEC
:101E300008463A4908603648008881B22E4803F0C7
:101E4000FFFD3448008881B22B4803F0FBFD324887
:101E5000008881B2284803F0F7FD3048008881B23D
:101E6000254803F0F3FD37E0224800681E2802DA17
:101E70001E20204908601F48006840F2EE21884279
:101E800002DD08461B490860194800681E2802DA6E
:101E90001E20174908601648006840F2EE2188426B
:101EA00002DD0846124908601248008881B21248D3
:101EB00003F0C6FD0E48008881B20F4803F0C2FD52
:101EC0000C48008881B20C4803F0BEFD0848008829
:101ED00081B2094803F0BAFD641CC82CFFF6F6AEC7
:101EE000323E6D1C092D7FF7EFAEBDE8F087000094
:101EF00034000020300000200008004000040040B2
:101F00001007002000006041800000200000E04039
:101F10004000002044000020480000204C00002029
:101F200070B504460420FEF7D4FBFE48008C81B255
:101F3000FD4803F085FDC82001F0C3FEF94830F8E4
:101F4000240081B2F84803F07DFD4FF42F7001F0BA
:101F5000B8FEF448808C81B2F34803F071FD4FF471
:101F60007A7001F0AEFE4EE00320FEF7B2FBEF49BF
:101F7000EF480068FEF7DCFC054605F01FFDED4963
:101F80000860EA49EA480068FEF70CFD054605F0DE
:101F900015FDE9490860E74800681E2802DA1E209E
:101FA000E4490860E348006840F2EE21884202DD1F
:101FB0000846E0490860E04800681E2802DA1E2052
:101FC000DD490860DC48006840F2EE21884202DD0D
:101FD0000846D9490860D748008881B2D74803F03D
:101FE0002FFDD448008881B2D44803F02BFDD2489D
:101FF000008881B2D14803F027FDCF48008881B224
:10200000CE4803F023FDCE4800680A28ACDACD485C
:102010000068401CCB49086070BD70B51DE101F03F
:10202000F4FC0320FEF755FB00F054FEC649C048FF
:102030000068FEF77DFC044605F0C0FCBD49086061
:10204000C149BB480068FEF7ADFC044605F0B6FC8C
:10205000B9490860BD49BE48006805F003FD7DD25E
:10206000B448006805F0E6FC0546BA49B84800687F
:1020700005F0F8FD06462946FEF7E4FC044605F0A7
:102080009DFCB5490860AB48006805F0D3FC0546E7
:10209000B049AF48006805F0E5FD06462946FEF761
:1020A0000BFD044605F08AFCAC490860A2480068B4
:1020B00005F0C0FC0546A749A548006805F0D2FD1B
:1020C00006462946FEF7F8FC044605F077FCA449CD
:1020D00008609948006805F0ADFC05469D499C489C
:1020E000006805F0BFFD06462946FEF7ABFC044636
:1020F00005F064FC9B490860974800681E2802DAD6
:102100001E20954908609448006840F2EE218842FC
:1021100002DD084690490860904800681E2802DAEF
:102120001E208E4908608D48006840F2EE218842EA
:1021300002DD084689490860894800681E2802DADD
:102140001E20874908608648006840F2EE218842D8
:1021500002DD084682490860824800E027E0006806
:102160001E2802DA1E207F4908607E48006840F27F
:10217000EE21884202DD08467A49086076480088E8
:1021800081B26E4803F05CFC7448008881B26B48F1
:1021900003F058FC7248008881B2684803F054FC90
:1021A0007048008881B2654803F050FC37E0614810
:1021B00000681E2802DA1E205E4908605D4800683B
:1021C00040F2EE21884202DD08465A4908605A482A
:1021D00000681E2802DA1E20574908605648006829
:1021E00040F2EE21884202DD08465349086051481A
:1021F000008881B2514803F023FC4E48008881B228
:102200004E4803F01FFC4C48008881B24B4803F055
:102210001BFC4948008881B2484803F017FC484835
:102220000068282803DB47480068FFF779FE402153
:102230004D4802F0B0FA01280FD110214A4802F0AF
:10224000AAFA012809D1142001F03BFD0420FEF771
:1022500040FA962001F035FD00E0E0E600BF70BDD9
:1022600070B504460420FEF734FA2E48008C81B283
:102270002D4803F0E5FBC82001F023FD294830F884
:10228000240081B2284803F0DDFB4FF42F7001F0E9
:1022900018FD2448808C81B2234803F0D1FB4FF411
:1022A0007A7001F00EFD73E00220FEF712FA1F496A
:1022B0001F480068FEF776FB054605F07FFB1D49C9
:1022C00008601A491A480068FEF732FB054605F017
:1022D00075FB19490860174800681E2802DA1E209D
:1022E000144908601348006840F2EE21884202DD7C
:1022F000084610490860104800681E2802DA1E20AF
:102300000D4908600C48006840F2EE21884202DD69
:102310000846094908600748008881B2074803F069
:102320008FFB23E050000020000400400000FA432F
:1023300010070020380000203C000020000800406A
:1023400024070020780000200000AF430000C041B7
:102350007C0000200000504140000020440000208C
:10236000480000204C00002000140140FE48008876
:1023700081B2FE4803F066FBFD48008881B2FB484D
:1023800003F062FBFA48008881B2F84803F05EFB74
:10239000F84800680A2887DAF7480068401CF649C0
:1023A000086070BD70B51DE101F02FFB0220FEF743
:1023B00090F900F08FFCF149F1480068FEF7F2FA5D
:1023C000044605F0FBFAE8490860EC49EC4800686F
:1023D000FEF7AEFA044605F0F1FAE5490860E9496E
:1023E000E948006805F03EFB7ED2DF48006805F052
:1023F00021FB0546E549E448006805F033FC064644
:102400002946FEF759FB044605F0D8FAE049086072
:10241000D548006805F00EFB0546DC49DA4800683F
:1024200005F020FC06462946FEF70CFB044605F0A5
:10243000C5FAD8490860CE48006805F0FBFA0546A1
:10244000D249D148006805F00DFC06462946FEF742
:10245000F9FA044605F0B2FACF490860C4480068AA
:1024600005F0E8FA0546C949C748006805F0FAFBD7
:1024700006462946FEF720FB044605F09FFAC749A9
:102480000860C34800681E2802DA1E20C0490860A0
:10249000BF48006840F2EE21884202DD0846BC4990
:1024A0000860BC4800681E2802DA1E20B94908608E
:1024B000B848006840F2EE21884202DD0846B5497E
:1024C0000860B54800681E2802DA1E20B24908607C
:1024D000B148006840F2EE21884202DD0846AE496C
:1024E0000860AE48006800E026E01E2802DA1E20E0
:1024F000AA490860A948006840F2EE21884202DD3E
:102500000846A6490860A248008881B2974803F0AF
:1025100097FAA048008881B2944803F093FA9E4845
:10252000008881B2914803F08FFA9C48008881B2FC
:102530008E4803F08BFA37E08B4800681E2802DAD9
:102540001E20894908608848006840F2EE218842D0
:1025500002DD084684490860854800681E2802DAC2
:102560001E20834908608248006840F2EE218842BC
:1025700002DD08467E4908607B48008881B27B48BE
:1025800003F05EFA7848008881B2784803F05AFA7E
:102590007748008881B2754803F056FA744800887D
:1025A00081B2724803F052FA72480068372803DBA0
:1025B00071480068FFF754FE4021794802F0EBF8BB
:1025C00001280FD11021764802F0E5F8012809D141
:1025D000142001F076FB0420FEF77BF8962001F032
:1025E00070FB00E0E0E600BF70BD70B534E101F0C3
:1025F0000CFA0320FEF76DF800F06CFB5F496048B1
:102600000068FEF795F9044605F0D8F956490860C8
:102610005A495B480068FEF7C5F9044605F0CEF953
:102620005349086057495848006805F01BFA7DD2A5
:102630004D48006805F0FEF90546544952480068C7
:1026400005F010FB06462946FEF7FCF9044605F0A6
:10265000B5F94F4908604448006805F0EBF90546B4
:102660004A494948006805F0FDFA06462946FEF742
:1026700023FA044605F0A2F9464908603C48006880
:1026800005F0D8F9054641493F48006805F0EAFAE7
:1026900006462946FEF710FA044605F08FF93E4932
:1026A00008603348006805F0C5F9054637493648E3
:1026B000006805F0D7FA06462946FEF7C3F9044636
:1026C00005F07CF935490860314800681E2802DAB7
:1026D0001E202F4908602E48006840F2EE218842F3
:1026E00002DD08462A4908602A4800681E2802DAE6
:1026F0001E20284908602748006840F2EE218842E1
:1027000002DD084623490860234800681E2802DAD3
:102710001E20214908602048006840F2EE218842CE
:1027200002DD08461C4908601C4800E046E00068DD
:102730001E2802DA1E20194908601848006840F275
:10274000EE21884202DD08461449086010480088DE
:1027500081B2064803F074F90E48008881B203483C
:1027600003F070F90C481DE038000020000800401C
:102770003C00002024070020780000200000AF4328
:10278000100700200000C0417C00002000005041E4
:102790004000002044000020480000204C000020A1
:1027A00000140140008881B2BA4803F04DF9BA48DC
:1027B000008881B2B74803F049F937E0B7480068AC
:1027C0001E2802DA1E20B5490860B448006840F2AD
:1027D000EE21884202DD0846B0490860B048006832
:1027E0001E2802DA1E20AE490860AD48006840F29B
:1027F000EE21884202DD0846A9490860A748008802
:1028000081B2A44803F01CF9A448008881B2A14811
:1028100003F018F9A248008881B29E4803F014F929
:102820009F48008881B29B4803F010F940219D48E1
:1028300001F0B1FF01280FD110219A4801F0ABFF40
:10284000012809D1142001F03CFA0420FDF741FFD2
:10285000962001F036FA00E0C9E600BF70BD70B501
:1028600015E101F0D2F80220FDF733FF00F032FA53
:102870008D498E480068FEF795F8044605F09EF8ED
:1028800086490860884989480068FEF751F804467F
:1028900005F094F88249086085498648006805F08B
:1028A000E1F87DD27D48006805F0C4F8054682490C
:1028B0008048006805F0D6F906462946FEF7FCF880
:1028C000044605F07BF87D4908607448006805F00F
:1028D000B1F8054678497748006805F0C3F906461F
:1028E0002946FEF7AFF8044605F068F87449086019
:1028F0006B48006805F09EF805466F496D48006812
:1029000005F0B0F906462946FEF79CF8044605F0A6
:1029100055F86C4908606248006805F08BF8054678
:1029200065496448006805F09DF906462946FEF7AA
:10293000C3F8044605F042F8574908605F4800684C
:102940001E2802DA1E205D4908605C48006840F2DB
:10295000EE21884202DD0846584908605848006860
:102960001E2802DA1E20564908605548006840F2C9
:10297000EE21884202DD084651490860514800684E
:102980001E2802DA1E204F4908604E48006840F2B7
:10299000EE21884202DD08464A4908603E4800E0D0
:1029A00027E000681E2802DA1E203B4908603A48EA
:1029B000006840F2EE21884202DD08463649086090
:1029C0003E48008881B2334803F03AF83C4800881A
:1029D00081B2304803F036F83A48008881B22D4879
:1029E00003F032F82C48008881B22A4803F02EF810
:1029F00037E02A4800681E2802DA1E2027490860AE
:102A00002648006840F2EE21884202DD084623494C
:102A10000860234800681E2802DA1E20204908604A
:102A20001F48006840F2EE21884202DD08461C493A
:102A300008601A48008881B2164803F001F8174868
:102A4000008881B2134802F0FDFF1548008881B26A
:102A5000104802F0F9FF1248008881B20D4802F0D8
:102A6000F5FF40210F4801F096FE01280FD11021FB
:102A70000C4801F090FE012809D1142001F021F941
:102A80000420FDF726FE962001F01BF900E0E8E6A1
:102A900000BF70BD000800404C000020380000203E
:102AA0003C000020001401400000AF43100700204C
:102AB0000000C0417C000020000050414000002088
:102AC00044000020480000203EB505460C46012188
:102AD000102002F096F8874802F0EAF8ADF80450AA
:102AE000ADF800400020ADF80600ADF802006946E0
:102AF000804802F0B1F901217E4802F0CFFF3EBDCF
:102B000008B50121080202F06FF85420ADF800006A
:102B100010208DF8030003208DF8020069467648E6
:102B200001F0A6FDA820ADF8000004208DF80300F8
:102B30006946714801F09CFD08BD2DE9F047044647
:102B4000012C40D104216C4801F03FFE142001F01B
:102B500094F80421684801F03AFE00BF0821664855
:102B600001F019FE0028F9D00121624802F0D0FCE2
:102B700005E0604802F083FF962800DD05E00821AB
:102B80005D4801F008FE0028F3D100BF002159483C
:102B900002F0BEFC574802F072FF00EB00104FEA53
:102BA0004009484604F015FC07460022534B04F048
:102BB0005BFA054604F072F95149086000214D485E
:102BC00002F03AFF84E0022C40D110214A4801F083
:102BD000FCFD142001F051F81021474801F0F7FDE9
:102BE00000BF2021444801F0D6FD0028F9D0012182
:102BF000404802F08DFC05E03E4802F040FF5A28B4
:102C000000DD05E020213C4801F0C5FD0028F3D19E
:102C100000BF0021374802F07BFC364802F02FFF4E
:102C200000EB00104FEA4009484604F0D2FB07468B
:102C30000022324B04F018FA054604F02FF931490E
:102C4000086000212B4802F0F7FE41E0032C3FD141
:102C50004021294801F0B9FD142001F00EF840216F
:102C6000254801F0B4FD00BF8021234801F093FD09
:102C70000028F9D001211F4802F04AFC05E01D4858
:102C800002F0FDFE5A2800DD05E080211A4801F01F
:102C900082FD0028F3D100BF0021164802F038FC65
:102CA000144802F0ECFE00EB00104FEA40094846E1
:102CB00004F08FFB07460022104B04F0D5F90546BF
:102CC00004F0ECF81049086000210A4802F0B4FE54
:102CD000BDE8F08710B50120FFF72FFF10BD10B53C
:102CE0000220FFF72AFF10BD10B50320FFF725FFD4
:102CF00010BD0000001000400020014000006940AD
:102D00007C0000208000002084000020002100E0E2
:102D1000491C8142FCD3704710B50221F84801F0EC
:102D200054FD1021F64801F050FD1021F44801F047
:102D30004EFD0221F24801F04AFD10BD10B50221FE
:102D4000EF4801F042FD1021ED4801F040FD102157
:102D5000EB4801F03AFD10BD10B50221E84801F042
:102D600034FD0221E64801F032FD10BD2DE9F041AD
:102D700005462C460221E24801F029FD002619E013
:102D8000274607F08007802F04D11021DC4801F08E
:102D90001CFD03E01021DA4801F019FD6006040E65
:102DA0000221D74801F011FD0221D54801F00FFDA5
:102DB000701CC6B2082EE3DBBDE8F08110B50446F6
:102DC000FFF7AAFF7820FFF7D1FFFFF7C5FF00202C
:102DD000FFF7CCFFFFF7C0FF2046FFF7C7FFFFF765
:102DE000BBFFFFF7ABFF10BD10B50446FFF794FF24
:102DF0007820FFF7BBFFFFF7AFFF4020FFF7B6FFDC
:102E0000FFF7AAFF2046FFF7B1FFFFF7A5FFFFF787
:102E100095FF10BD70B504460D461DB1E0B2FFF739
:102E2000E3FF02E0E0B2FFF7C9FF70BD70B50646F0
:102E3000002418E004F1B0000021FFF7EBFF0021AF
:102E40000846FFF7E7FF00211020FFF7E3FF00250A
:102E500005E001213046FFF7DDFF681CC5B2802D7B
:102E6000F7DB601CC4B2082CE4DB70BD06E041F661
:102E7000650100E0491E0029FCD1401E0028F6D162
:102E80007047014605E0002001E0421CD0B27B28DB
:102E9000FBDB0A1EA1F10101F5D1704770B50446B4
:102EA0000D4605F1B0000021FFF7B4FF102141EA03
:102EB00014100021FFF7AEFF04F00F000021FFF710
:102EC000A9FF70BD10B500218D20FFF7A3FF0021E1
:102ED0001420FFF79FFF0021AF20FFF79BFF10BDDD
:102EE00010B500218D20FFF795FF00211020FFF77E
:102EF00091FF0021AE20FFF78DFF10BD70B50024BB
:102F000018E004F1B0000021FFF784FF002108461B
:102F1000FFF780FF00211020FFF77CFF002505E070
:102F200001210020FFF776FF681CC5B2802DF7DB7A
:102F3000601CC4B2082CE4DB70BD70B5002418E03E
:102F400004F1B0000021FFF765FF00210846FFF7FC
:102F500061FF00211020FFF75DFF002505E0012142
:102F60000846FFF757FF681CC5B2802DF7DB601CD1
:102F7000C4B2082CE4DB70BD2DE9F04707460E46CD
:102F80009046994600250024A8F12000C5B27F2F65
:102F900002DD0027B01CC6B2B9F1100F24D13146B2
:102FA0003846FFF77BFF002408E004EB0511554A83
:102FB000505C0121FFF72EFF601CC4B2082CF4DB2B
:102FC000701CC1B23846FFF769FF002409E004EB2A
:102FD000051108314B4A505C0121FFF71BFF601CB3
:102FE000C4B2082CF3DB12E031463846FFF756FF37
:102FF00000240AE005EB4501434A02EB4101085D6C
:103000000121FFF707FF601CC4B2062CF2DBBDE80C
:10301000F08710B50246012000E050430B1EA1F1DD
:103020000104E1B2F9D110BD2DE9FF5F07469146D9
:103030001E460E9D4FF0000A002435E0301B401E56
:10304000C1B20A20FFF7E5FFB9FBF0F00A21B0FB9F
:10305000F1F201FB1208BAF1000F14D1701EA04268
:1030600011DDB8F1000F0CD1AB4605EBDB71491057
:1030700001FB0471C8B22B4620220199FFF77CFFA7
:1030800010E04FF0010AAB4605EBDB71491001FB84
:103090000471C8B208F13001CAB22B460199FFF79A
:1030A0006BFF00BF601CC4B2B442C7DBBDE8FF9F2A
:1030B0002DE9F04105460E4614461F460EE02278E3
:1030C0003B4631462846FFF757FF05F10800C5B2D9
:1030D000782D02DD0025B01CC6B2641C20780028C3
:1030E000EDD1BDE8F0812DE9F04180460F4615464F
:1030F0001E4639464046FFF7D1FE00240EE0000090
:10310000000801407A7F0008527D000806EB451157
:10311000085D0121FFF77EFE601CC4B2102CF5DBB8
:10312000781CC1B24046FFF7B9FE002409E06900EF
:10313000491C06EB0111085D0121FFF76BFE601CC5
:10314000C4B2102CF3DBBDE8F0812DE9F05F064638
:103150000F4690461C46DDF828A04FF0000BE11703
:1031600004EB5171C910A4EBC10131B92046E1173C
:1031700004EB5171C1F3C70506E02046E11704EBEB
:103180005171C910491CCDB23D4615E02946304663
:10319000FFF784FEB1460BE059460BF1010B1AF81C
:1031A00001000121FFF736FE09F1010000F0FF09DF
:1031B000C145F1DB681CC5B2A542E7DBBDE8F09F65
:1031C0002DE9FF5F86B014461D464FF0010A00202E
:1031D0000390049005904FF00109002600BF83463C
:1031E000002213462046294604F01EF909D285F034
:1031F0000040CDE900402046019904F08DF80646D4
:1032000004E02046294604F087F80646304604F0DC
:10321000E0F822462B46CDE9000104F03FFA0746CC
:1032200088460022FE4B3846414604F039F9CDE984
:10323000000104F0A1F8834607E009EB89004FEA9A
:1032400040090AF1010000F0FF0A0A2096FBF0F0A5
:1032500090FBF9F00028F0D142F2107096FBF0F0EC
:103260000A2190FBF1F201FB1200C0B28DF80C00B4
:103270004FF47A7096FBF0F090FBF1F201FB120034
:10328000C0B28DF80D00642096FBF0F090FBF1F2D7
:1032900001FB1200C0B28DF80E000A2096FBF0F080
:1032A00090FBF1F201FB1200C0B28DF80F000A2072
:1032B00096FBF0F100FB1160C0B28DF810002E20DB
:1032C0008DF811004FF47A70BBFBF0F00A21B0FBCF
:1032D000F1F201FB12008DF812006420BBFBF0F04C
:1032E000B0FBF1F201FB12008DF813000A20BBFBCA
:1032F000F0F0B0FBF1F201FB12008DF814000A208F
:10330000BBFBF0F100FB11B08DF815000021149803
:10331000801D03AA1154894608E003A810F809008B
:10332000303003A901F8090009F10109B9F10A0FC8
:10333000F3DB002213462046294604F075F808D234
:103340000AF1010000F0FF0A2D20CAF1050103AACD
:1033500050542E208DF8110000211498801D03AACE
:103360001154CAF1050003A942181023DDE9061023
:10337000FFF79EFE0AB0BDE8F09F2DE9F04F89B03F
:103380008246894617469846DDF84CB001200790E2
:1033900000200490059006900124002500BF00261F
:1033A0004FEAC9604FEA10693846414603F0B4FF5E
:1033B0000546284604F024F83A464346CDE9000184
:1033C00004F06CF9CDE902010022954BDDE9020120
:1033D00004F066F8CDE9000103F0CEFF064606E0F2
:1033E00004EB840044000798401CC0B207900A20F8
:1033F000B5FBF0F0B0FBF4F00028F1D142F2107010
:10340000B5FBF0F00A21B0FBF1F201FB12008DF8E0
:1034100010004FF47A70B5FBF0F0B0FBF1F201FB55
:1034200012008DF811006420B5FBF0F0B0FBF1F252
:1034300001FB12008DF812000A20B5FBF0F0B0FB82
:10344000F1F201FB12008DF813002E208DF815000B
:103450004FF47A70B6FBF0F0B0FBF1F201FB120012
:103460008DF816006420B6FBF0F0B0FBF1F201FB22
:1034700012008DF817000A20B6FBF0F0B0FBF1F255
:1034800001FB12008DF818000A20B6FBF0F100FBDA
:1034900011608DF8190000210BF1060004AA1154E7
:1034A000002405E004A8005D303004A90855641C20
:1034B0000A2CF7DB2E208DF8150000210BF10600F9
:1034C00004AA11541298C0F1050004A942180C2353
:1034D00051464846FFF7ECFD09B0BDE8F08F2DE9F5
:1034E000F04105460F46164600BF05EB450149066B
:1034F000080E3946FFF7D2FC00240BE006F110015C
:1035000001EB4101474A02EB4101085D0121FFF750
:1035100081FC641C062CF1DBBDE8F0812DE9F04153
:1035200005460F46164600BF05EB45014906080E45
:103530003946FFF7B3FC002409E006EB4601394A9F
:1035400002EB4101085D0121FFF764FC641C062CBD
:10355000F3DBBDE8F0812DE9F047054689461646C4
:103560003446002C22DA6442642094FBF0F100FB24
:1035700011400A2190FBF1F0C7B20A2094FBF0F150
:1035800000FB114000F0FF080D2249462846FFF7D6
:10359000C5FF691CC8B23A464946FFF7A0FFA91CFF
:1035A000C8B242464946FFF79AFF20E0642094FBE8
:1035B000F0F100FB11400A2190FBF1F0C7B20A20A4
:1035C00094FBF0F100FB114000F0FF080B2249468C
:1035D0002846FFF7A3FF691CC8B23A464946FFF7E1
:1035E0007EFFA91CC8B242464946FFF778FFBDE8F6
:1035F000F0872DE9F04705468A4616463446002CEA
:1036000033DA64420D2251462846FFF787FF0A202D
:1036100094FBF0F100FB1140C7B20A2004E0000067
:103620000088C340527D000894FBF0F00A2190FB13
:10363000F1F201FB120000F0FF08642094FBF0F0AF
:1036400000F0FF09E91CC8B23A465146FFF747FFB0
:10365000A91CC8B242465146FFF741FF691CC8B2D7
:103660004A465146FFF73BFF2BE00B2251462846C6
:10367000FFF754FF0A2094FBF0F100FB1140C7B2A2
:103680000A2094FBF0F00A2190FBF1F201FB1200FA
:1036900000F0FF08642094FBF0F000F0FF09E91C43
:1036A000C8B23A465146FFF71AFFA91CC8B24246B3
:1036B0005146FFF714FF691CC8B24A465146FFF74E
:1036C0000EFFBDE8F0872DE9F05F05468B461646F4
:1036D0003446002C00DA64424FF47A7094FBF0F028
:1036E000C7B24FF47A7094FBF0F100FB11406421F3
:1036F00090FBF1F000F0FF08642094FBF0F100FB78
:1037000011400A2190FBF1F000F0FF090A2094FB20
:10371000F0F100FB114000F0FF0A3A4659462846F6
:10372000FFF7DDFE691CC8B242465946FFF7D7FED7
:10373000A91CC8B24A465946FFF7D1FEE91CC8B2D7
:1037400052465946FFF7CBFEBDE8F09F2DE9F05FEA
:1037500005460E46144642F21070B4FBF0F0C7B2B4
:1037600042F21070B4FBF0F100FB11404FF47A719B
:10377000B0FBF1F000F0FF080846B4FBF0F100FBED
:1037800011406421B0FBF1F000F0FF096420B4FBAC
:10379000F0F100FB11400A21B0FBF1FA0A20B4FB62
:1037A000F0F100FB114B3A4631462846FFF797FEF1
:1037B000691CC8B242463146FFF791FEA91CC8B247
:1037C0004A463146FFF78BFEE91CC8B252463146E5
:1037D000FFF785FE291DC8B25A463146FFF77FFE26
:1037E000BDE8F09F08B50121042001F0FDF9122089
:1037F000ADF8000010208DF8030003208DF80200C2
:103800006946DF4800F034FF1221DD4800F0DDFF9B
:1038100044F62060FFF77AFA0021AE20FFF7FAFAAB
:1038200000210846FFF7F6FA00211020FFF7F2FA10
:1038300000214020FFF7EEFA0021B020FFF7EAFA5E
:1038400000218120FFF7E6FA0021FF20FFF7E2FACE
:103850000021A120FFF7DEFA0021A620FFF7DAFA07
:103860000021A820FFF7D6FA00213F20FFF7D2FA67
:103870000021C820FFF7CEFA0021D320FFF7CAFAB3
:1038800000210846FFF7C6FA0021D520FFF7C2FA4B
:1038900000218020FFF7BEFA0021D820FFF7BAFAF6
:1038A00000210520FFF7B6FA0021D920FFF7B2FA70
:1038B0000021F120FFF7AEFA0021DA20FFF7AAFA83
:1038C00000211220FFF7A6FA0021DB20FFF7A2FA61
:1038D00000213020FFF79EFA00218D20FFF79AFA91
:1038E00000211420FFF796FA0021AF20FFF792FA8B
:1038F00008BD10B51023A3A208210420FFF7D8FBB0
:10390000A14B142208211020FFF7EDFB9E4B15223E
:1039100008212020FFF7E7FB10239CA2082130207C
:10392000FFF7C6FB984B162208216820FFF7DBFB48
:10393000102397A20A210420FFF7BAFB924B07221B
:103940000A211020FFF7CFFB8F4B08220A212020ED
:10395000FFF7C9FB10238DA20A213020FFF7A8FB37
:1039600010238CA20A216820FFF7A2FB10238AA251
:103970000A217020FFF79CFB102388A20C21042051
:10398000FFF796FB804B07220C211020FFF7ABFBC3
:103990007D4B08220C212020FFF7A5FB10237BA2E2
:1039A0000C213020FFF784FB10237AA20C21682021
:1039B000FFF77EFB102378A20C217020FFF778FB25
:1039C000102377A20E210420FFF772FB6E4B072213
:1039D0000E211020FFF787FB6B4B08220E212020C1
:1039E000FFF781FB102369A20E213020FFF760FB57
:1039F000102368A20E216820FFF75AFB102366A24D
:103A00000E217020FFF754FB10BD38B565480068E3
:103A100003F03AFF0446032022460B46382100906B
:103A20000820FFF7CDFB6048006803F0E3FF044681
:103A30001020032322460A2100903820FFF7F4FAD1
:103A40005A48006803F0D6FF04461020032322469C
:103A50000C2100903820FFF7E7FA5548006803F082
:103A6000C9FF04461020032322460E21009038206F
:103A7000FFF7DAFA38BD10B5434B0E220C210020B7
:103A8000FFF731FB404B0F220C211020FFF72BFBDF
:103A90003D4B10220C212020FFF725FB10BD10B557
:103AA0001023202206210020FFF766FA102365224A
:103AB00006210820FFF760FA10237222062118461B
:103AC000FFF75AFA1023722206211820FFF754FA42
:103AD00010236F2206212020FFF74EFA10237222B6
:103AE00006212820FFF748FA102320220621302043
:103AF000FFF742FA1023202206213820FFF73CFA74
:103B00001023202206214020FFF736FA10BD10B501
:103B10001023202206210020FFF72EFA1023202256
:103B200006210820FFF728FA102320220621184634
:103B3000FFF722FA1023202206211820FFF71CFA93
:103B40001023202206211046FFF716FA1023202208
:103B500006212820FFF710FA10232022062130200A
:103B6000FFF70AFA1023202206213820FFF704FA73
:103B70001023202206214020FFF7FEF910BD00008F
:103B8000000801404E0000000C0400203A00000034
:103B900049000000430000004D0000004C00000000
:103BA00052000000100700207C0000208000002050
:103BB0008400002030B589B005460C460121042060
:103BC00001F012F80121022001F01BF8C020ADF82D
:103BD000200003208DF8220018208DF8230008A96A
:103BE000174800F045FDADF81850ADF8144000201E
:103BF000ADF81A00ADF8160005A9124801F02CF92D
:103C00006020ADF804000120ADF806000220ADF8F8
:103C10000C0001A90B4801F05CF90821094801F0EA
:103C2000A7FD01A9074801F096F90821054801F010
:103C3000A8FD0121034801F06BFC09B030BD000074
:103C4000000801400004004010B56FF0040000F0CF
:103C500090FC2E4800682E49B0FBF1F02D49087009
:103C60000846007800EB4001C1EBC0104FF6FF7131
:103C700001EAC0002849088010BD0146254A127893
:103C80004A434FF0E0235A6100229A611A461269B2
:103C900042F001021A6100BF4FF0E022106900F00B
:103CA00001021AB100F48032002AF5D04FF0E02270
:103CB000126922F001024FF0E0231A6100229A619A
:103CC00070470146144A12884A434FF0E0235A6174
:103CD00000229A611A46126942F001021A6100BF7D
:103CE0004FF0E022106900F001021AB100F48032B6
:103CF000002AF5D04FF0E022126922F001024FF0C5
:103D0000E0231A6100229A61704700000000002041
:103D100000127A00EC060020EE060020014600BFEB
:103D2000704700BFFE4A128802F04002002AF9D014
:103D3000C2B2FB4B1B1D1A80704710B586B00446FB
:103D4000012144F2040000F04FFF4FF40070ADF881
:103D5000140003208DF8160018208DF8170005A90F
:103D6000F04800F085FC4FF48060ADF814000420AA
:103D70008DF8170005A9EB4800F07AFC25208DF896
:103D8000000003208DF801008DF8020001208DF85D
:103D90000300684600F0A3FB01940020ADF8080082
:103DA000ADF80A00ADF80C00ADF810000C20ADF82D
:103DB0000E0001A9DA4801F0CCFE012240F22551A3
:103DC000D74801F05EFF0121D54801F04EFF06B053
:103DD00010BD10B540F22551D14802F037F810B3AC
:103DE000CF4801F0B3FFC4B2CF48008800F40040D0
:103DF000C8B9CD48008800F4804060B10A2C03D0D7
:103E00000020C949088020E0C748008840F40040ED
:103E1000C549088019E00D2C06D1C348008840F43C
:103E20008040C149088010E0BF480088C0F30D0001
:103E3000BE490C54BC480088401CBB490880084659
:103E40000088C72801DD0020088010BD10B586B0AD
:103E500004460121042000F0C7FE0121480400F0BF
:103E6000D0FEB34801F032FE0420ADF81400032068
:103E70008DF8160018208DF8170005A9A94800F044
:103E8000F7FB0820ADF8140004208DF8170005A9F1
:103E9000A44800F0EDFB01940020ADF80800ADF857
:103EA0000A00ADF80C00ADF810000C20ADF80E00C3
:103EB00001A99F4801F04DFE26208DF80000012049
:103EC0008DF801008DF802008DF80300684600F0BF
:103ED00006FB012240F22551954801F0D2FE012156
:103EE000934801F0C2FE06B010BD2DE9F04740F244
:103EF00025518F4801F0AAFF00287DD08C4801F0A1
:103F000025FF8C498C4A127888548B48007828B950
:103F100008460078552801D0BDE8F087864800782B
:103F2000401C85490870084600780B2864D10020A1
:103F3000087080484078512804D052287ED05328F9
:103F40007DD11FE17B4880787C4908707948C07832
:103F5000487078480079887076484079C87075480C
:103F6000807908717348C07948717248007A744941
:103F700008707048407A4870704909786F4A5278E2
:103F800041EA022108B203F024FA804600226D4B78
:103F900003F06AF8064600226B4B03F081FA0446F0
:103FA00002F07CFF6949086064498978634AD278E5
:103FB00041EA022108B203F00CFA06460022614BE6
:103FC00003F052F8804600225F4B03F069FA044682
:103FD00002F064FF5D49486058490979574A5279AF
:103FE00041EA022108B203F0F4F980460022554B61
:103FF00003F03AF8064600E040E10022524B03F09D
:104000004FFA044602F04AFF504988604C48007855
:104010004B49497840EA012000B24FF4AA7190FB65
:10402000F1F4204603F0D5F90546494A494B02F020
:1040300067FF074602F032FF474901E002E01CE15A
:1040400008601AE13B488078444908703948C078D4
:10405000487038480079887036484079C8703548CB
:10406000807908713348C07948713248007A344900
:1040700008703048407A487038490978374A527891
:1040800041EA022108B203F0A4F9804600222D4B38
:1040900002F0EAFF06460022314B03F001FA044623
:1040A00002F0FCFE2F4908602C4989782B4AD2780F
:1040B00041EA022108B203F08CF980460022214B2C
:1040C00002F0D2FF06460022254B03F0E9F9044630
:1040D00002F0E4FE23494860204909791F4A5279D9
:1040E00041EA022108B203F074F980460022154B20
:1040F00002F0BAFF06460022194B03F0D1F904463C
:1041000002F0CCFE174988600D4800780C494978C8
:1041100040EA012000B24FF4AA7190FBF1F423E0D1
:104120000038014000080140F406002090070020FC
:104130000044004058080020F6060020F706002042
:10414000090700200000E040000030407008002017
:10415000A4703D0AD74342400C070020FD06002012
:1041600000409F407C080020204603F032F90546BD
:10417000B54AB64B02F0C4FE074602F08FFEB449C2
:1041800008607AE0B3488078B3490870B148C078D5
:104190004870B04800798870AE484079C870AD4822
:1041A00080790871AB48C0794871AA48007AAB4958
:1041B0000870A848407A4870A7490978A64A5278FA
:1041C00041EA022108B203F004F980460022A44B20
:1041D00002F04AFF06460022A24B03F061F90446B2
:1041E00002F05CFEA04908609B4989789A4AD2781F
:1041F00041EA022108B203F0ECF806460022984B8F
:1042000002F032FF04460022964B03F049F9804643
:1042100002F044FE944948608F4909798E4A5279E8
:1042200041EA022108B203F0D4F8064600228C4B82
:1042300002F01AFF044600228A4B03F031F980464F
:1042400002F02CFE884988608448007883494978C8
:1042500040EA012000B24FF4AA7190FBF1F420462D
:1042600003F0B7F80546784A784B02F049FE074656
:1042700002F014FE7649086000BF00BF7A488068EB
:104280007A49086040F22551794801F009FE00BFE3
:1042900042E610B586B004460121880400F0B1FC66
:1042A0000121082000F0A0FC4FF48060ADF814005C
:1042B00003208DF8160018208DF8170005A96D4809
:1042C00000F0D6F94FF40060ADF8140004208DF82A
:1042D000170005A9674800F0CBF927208DF80000EA
:1042E00003208DF8010002208DF8020001208DF8D6
:1042F0000300684600F0F3F801940020ADF80800D0
:10430000ADF80A00ADF80C00ADF810000C20ADF8C7
:104310000E0001A9584801F01CFC012240F2255171
:10432000554801F0AEFC0121534801F09EFC06B057
:1043300010BD52488068524908605048C0685149D1
:104340000860704700B502464F48006838B9B32A84
:1043500005D101204C490860484802605AE04A48AB
:104360000068012807D1B32A05D102204649086018
:10437000424842604EE044480068022805D10320CC
:10438000414908603D48826044E03F480068032896
:1043900005D104203C4908603848C2603AE03A48F8
:1043A0000068042821D15B2A07D100203649086023
:1043B00032480261FFF7BDFF2CE05B2A2AD00020C3
:1043C00031490860314908600AE000202B492F4B31
:1043D0001B6841F823002D480068401C2B490860E9
:1043E0002A4800680528F0DB14E000202649086010
:1043F000264908600AE000212048244B1B6840F849
:10440000231022480068401C204908601F480068AB
:104410000528F0DB00BD10B540F22551164801F02B
:1044200015FD78B11448001D008819490860084638
:104430000068FFF787FFFFF77CFF40F225510E4829
:1044400001F02EFD10BD0000A4703D0AD74342408C
:104450000C0700205808002003070020090700204F
:104460000000E04000806640640800201007002043
:1044700000440040000C014000480040700C002047
:104480002007002024070020300700202C070020F0
:104490001C0700200948804709480047FEE7FEE75F
:1044A000FEE7FEE7FEE7FEE7FEE7FEE7FEE7FEE7E4
:1044B00004480549054A064B704700007B04000884
:1044C00031010008E80C0020E8120020E80E00206E
:1044D000E80E002031490143314A1160704770B540
:1044E000002100230F22C47804B32D4C246804F467
:1044F000E064C4F5E064210AC1F10403CA404478D1
:1045000004FA03F18478144021430901254C06780C
:10451000A155047804F01F050124AC4005786D1105
:10452000AD0005F1E025C5F8004109E0047804F08C
:104530001F050124AC401C4D0678761145F8264035
:1045400070BD1A4A0A400243154B1B1F1A60704780
:1045500039B1134A121D12680243114B1B1D1A6018
:1045600006E00F4A121D126882430D4B1B1D1A6094
:104570007047042808D14FF0E021096941F0040197
:104580004FF0E022116107E04FF0E021096921F0CE
:1045900004014FF0E0221161704700000000FA05AD
:1045A0000CED00E000E400E080E100E080FFFF1F90
:1045B00010B50446CC48844208D10121042000F003
:1045C0002DFB0021042000F029FB46E0C74884426F
:1045D00008D10121082000F021FB0021082000F073
:1045E0001DFB3AE0C248844208D10121102000F0AE
:1045F00015FB0021102000F011FB2EE0BD48844285
:1046000008D10121202000F009FB0021202000F02A
:1046100005FB22E0B848844208D10121402000F087
:10462000FDFA0021402000F0F9FA16E0B348844278
:1046300008D10121802000F0F1FA0021802000F053
:10464000EDFA0AE0AE48844207D10121801500F05E
:10465000E5FA0021A01500F0E1FA10BD10B5012126
:10466000084600F0DBFA0021012000F0D7FA10BD67
:104670002DE9F041024600250026002000230024F9
:10468000002791F803C00CF00F0591F803C00CF05F
:10469000100CBCF1000F03D091F802C04CEA0505E4
:1046A00091F800C0BCF1000F31D0146800202BE05D
:1046B0004FF0010C0CFA00F3B1F800C00CEA03064D
:1046C0009E4220D183004FF00F0C0CFA03F7BC433D
:1046D00005FA03FC4CEA040491F803C0BCF1280F6E
:1046E00006D14FF0010C0CFA00FCC2F814C00AE02D
:1046F00091F803C0BCF1480F05D14FF0010C0CFA42
:1047000000FCC2F810C0401C0828D1D31460B1F8D6
:1047100000C0BCF1FF0F34DD546800202EE000F132
:10472000080C4FF0010808FA0CF3B1F800C00CEACD
:1047300003069E4221D183004FF00F0C0CFA03F7C1
:10474000BC4305FA03FC4CEA040491F803C0BCF135
:10475000280F05D100F1080C08FA0CF8C2F81480F3
:1047600091F803C0BCF1480F07D100F1080C4FF0DD
:10477000010808FA0CF8C2F81080401C0828CED3B3
:104780005460BDE8F0814FF6FF7101800221817015
:104790000421C17070470246002093680B400BB1A2
:1047A000012000E0002070470146886880B2704711
:1047B00002460020D3680B400BB1012000E000202E
:1047C00070470146C86880B2704701617047416117
:1047D00070470AB1016100E041617047C1607047F4
:1047E0004FF480320A438261816182618269826909
:1047F000704702460020434B18684FF680731840FC
:1048000040EA021008433F4B186070473E49C861B8
:104810007047F0B50A46002300240021002500F06F
:104820000046B6F1004F02D1364EF16901E0354E37
:104830007168C0F3034583B200F44016B6F5401F1B
:1048400008D121F070612F4E766826F070662D4FEA
:104850007E6012E000F48016B6F5801F06D10326B4
:1048600006FA05F4A14341F0706106E0460D3601F9
:1048700003FA06F6B14341F0706122B1460D3601EC
:1048800003FA06F6314300F00046B6F1004F02D1BC
:104890001C4EF16101E01B4E7160F0BD30B500228D
:1048A0008B071C0F0F2303FA04F2164B08338C10EE
:1048B00053F824309343134C08348D1044F82530BA
:1048C00023468C1053F824308C07240F00FA04F48C
:1048D00023430C4C08348D1044F8253030BD0A4970
:1048E000DC3108607047000000080140000C014006
:1048F000001001400014014000180140001C01405C
:10490000002001400000014000002042DF48006814
:1049100040F00100DD49086008464068DC49084075
:10492000DA49486008460068DA490840D749086013
:104930000846006820F4802008600846406820F49B
:10494000FE0048604FF41F0088607047CF49096837
:1049500021F48031CD4A11601146096821F480218B
:104960001160B0F5803F03D0B0F5802F0ED106E086
:10497000C649096841F48031C44A116007E0C3495F
:10498000096841F4A021C14A116000E000BF00BFE6
:10499000704710B501460022002300204A11012A69
:1049A00002D1BA4C236806E0022A02D1B74C236A2E
:1049B00001E0B64C636A01F01F02012494401C40E0
:1049C0000CB1012000E0002010BD38B5002000909F
:1049D0000024002500BF3120FFF7DBFF05460098CB
:1049E000401C00900098B0F5A06F01D0002DF2D0CF
:1049F0003120FFF7CEFF08B1012400E0002420465B
:104A000038BD01460020A14A106820F0F80040EAB5
:104A1000C10010607047A04908607047024600203E
:104A20009A4B586820F47C1042EA01031843974BD4
:104A30005860704798490866704701460020934ABD
:104A4000506820F003000843506070478F4840686A
:104A500000F00C007047014600208C4A506820F09E
:104A6000F00008435060704701460020874A5068B4
:104A700020F4E06008435060704701460020834AFC
:104A8000506820F4605040EAC1005060704729B17E
:104A90007E4A527A02437D4B5A7204E07B4A527A34
:104AA00082437A4B5A7270477B49D831086070470D
:104AB00001460020754A506820F440400843506089
:104AC00070470021714A20321170704A82F820101C
:104AD000012802D004280AD104E001216B4A2032C7
:104AE000117005E00521694A2032117000E000BF15
:104AF00000BF70476949086070476449096A01430B
:104B0000624A11627047654944390860704730B5A0
:104B100000210022002400235C4D6D6805F00C018B
:104B200021B1042905D0082923D105E05C4D056099
:104B300022E05B4D05601FE0544D6D6805F4701276
:104B4000524D6D6805F48034022505EB92421CB984
:104B5000544D554305600BE04C4D6D6805F4003530
:104B60001DB1504D5543056002E04D4D5543056064
:104B700002E04B4D056000BF00BF444D6D6805F07D
:104B8000F0010909484D6B5C0568DD4045603F4D0B
:104B90006D6805F4E061090A434D6B5C4568DD40D2
:104BA00085603A4D6D6805F46051C90A3E4D6B5CF5
:104BB0004568DD40C560354D6D6805F44041890BA1
:104BC0003A4D6B5CC568B5FBF3F5056130BD29B1A5
:104BD0002E4A526902432D4B5A6104E02B4A526916
:104BE00082432A4B5A61704729B1284A926902438D
:104BF000264B9A6104E0254A92698243234B9A61CD
:104C0000704729B1214AD2690243204BDA6104E09E
:104C10001E4AD26982431D4BDA61704729B11B4A93
:104C2000D2680243194BDA6004E0184AD268824322
:104C3000164BDA60704729B1144A12690243134BCC
:104C40001A6104E0114A12698243104B1A617047DD
:104C500012494039086070470F49C86470470B49D2
:104C6000C87170470948406A40F08070074948623F
:104C7000704701460020054A92680A400AB10120A7
:104C800000E0002070470149887270470010024020
:104C90000000FFF8FFFFF6FE00004242800442429F
:104CA00000127A0000093D0034070020440700206C
:104CB00010B50446FE48844208D10121C014FFF714
:104CC000ADFF0021E014FFF7A9FFC4E0B4F1804F6D
:104CD00008D101210846FFF7AEFF00210120FFF7B0
:104CE000AAFFB8E0F348844208D101210220FFF76F
:104CF000A2FF00210220FFF79EFFACE0EE488442B5
:104D000008D101210420FFF796FF00210420FFF7BE
:104D100092FFA0E0E948844208D101210820FFF772
:104D20008AFF00210820FFF786FF94E0E4488442D0
:104D300008D101211020FFF77EFF00211020FFF78E
:104D40007AFF88E0DF48844208D101212020FFF764
:104D500072FF00212020FFF76EFF7CE0DA488442DA
:104D600008D101214014FFF759FF00216014FFF71B
:104D700055FF70E0D548844209D10121C804FFF7EE
:104D80004DFF00214FF40020FFF748FF63E0D048BB
:104D9000844209D101210805FFF740FF00214FF4AB
:104DA0008010FFF73BFF56E0CA48844209D1012139
:104DB0004805FFF733FF00214FF40010FFF72EFFE7
:104DC00049E0C548844208D101214020FFF733FF64
:104DD00000214020FFF72FFF3DE0C048844208D16A
:104DE00001218020FFF727FF00218020FFF723FF0C
:104DF00031E0BB48844208D101218015FFF71BFF39
:104E00000021A015FFF717FF25E0B648844209D11D
:104E100001210804FFF702FF00214FF48030FFF763
:104E2000FDFE18E0B048844209D101214804FFF793
:104E3000F5FE00214FF40030FFF7F0FE0BE0AB4829
:104E4000844208D101218804FFF7E8FE00214FF4D5
:104E50008020FFF7E3FE10BD00220288944B9842A9
:104E60000ED0994B98420BD0B0F1804F08D0914BA7
:104E7000984205D0904B984202D0904B984204D172
:104E80004FF68F731A404B881A438D4B984207D0C8
:104E90008C4B984204D04FF6FF431A40CB881A43FC
:104EA00002808B8883850B880385814B98420BD0C9
:104EB000854B984208D08B4B984205D08A4B98423C
:104EC00002D08A4B984201D10B7A03860123838258
:104ED000704770B5002400220023058C4FF6FE7643
:104EE00035400584028C8388048B4FF68F752C40E7
:104EF000B51E2C400D882C43751E2A400D892A436F
:104F00004D882A436A4DA8420BD06F4DA84208D065
:104F1000744DA84205D0744DA84202D0734DA842EA
:104F200013D14FF6F7752A404D892A434FF6FB758A
:104F30002A408D882A434FF6FF652B404FF6FF55D8
:104F40002B408D892B43CD892B4383800483CD88CF
:104F50008586028470BD70B5002400220023058C74
:104F60004FF6EF7635400584028C8388048B48F633
:104F7000FF752C404FF6FF452C400D884FF6FF760D
:104F800006EA05252C434FF6DF752A400D8906EA0F
:104F900005152A434D8806EA05152A43444DA842C3
:104FA00002D0494DA8421DD14FF67F752A404D8948
:104FB0004FF6FF7606EA05152A434FF6BF752A40DD
:104FC0008D8806EA05152A434FF6FF352B404FF230
:104FD000FF752B408D8906EA85052B43CD8906EAAE
:104FE00085052B4383800483CD880587028470BDAB
:104FF00070B5002400220023058C4FF6FF66354073
:105000000584028C8388848B4FF68F752C404FF675
:10501000FC752C400D882C434FF6FF552A400D8916
:105020004FF6FF7606EA05252A434D8806EA052550
:105030002A431F4DA84202D0234DA8421DD14FF252
:10504000FF752A404D894FF6FF7606EA05252A436B
:105050004FF6FF352A408D8806EA05252A434EF68D
:10506000FF752B404DF6FF752B408D8906EA05151F
:105070002B43CD8906EA05152B4383808483CD8895
:105080008587028470BD70B5002200230024058C42
:105090004EF6FF7635400584038C8488828B48F673
:1050A000FF752A404FF6FF452A400D8820E000009A
:1050B000002C01400004004000080040000C0040AB
:1050C000001000400014004000340140004C01403A
:1050D000005001400054014000180040001C0040F6
:1050E00000200040004001400044014000480140D1
:1050F0004FF6FF7606EA05252A434DF6FF752B404D
:105100000D8906EA05352B434D8806EA05352B4304
:10511000FA4DA84202D0FA4DA84208D14BF6FF75CD
:105120002C408D894FF6FF7606EA85152C43848046
:105130008283CD88A0F84050038470BD828B4FF2EB
:10514000FF331A408283828B4FF6FF7303EA0123F9
:105150001A4382837047F0B50C46154600220021A1
:105160000026078C4EF6FF7C07EA0C070784828B2B
:10517000018C4FF6FF7707EA043640F6FF473A40C6
:105180004FF6FF7707EA05273A434FF6FF7707EA1E
:1051900003373A43D94FB8420ED0D94FB8420BD05B
:1051A000B0F1804F08D0D74FB84205D0D64FB842A3
:1051B00002D0D64FB84206D14DF6FF77394046F4BB
:1051C0008057394305E047F6FF57394044F480578C
:1051D000394382830184F0BD828B4FF6F3731A400A
:1051E0008283828B0A4382837047F0B50C46154652
:1051F000002200210026078C4FF6FF6C07EA0C07FF
:105200000784828B018C4FF6FF7707EA04264FF65E
:105210000C773A404FF6FF7707EA03172F433A43DC
:10522000B64FB8420ED0B64FB8420BD0B0F1804F57
:1052300008D0B44FB84205D0B34FB84202D0B34FF4
:10524000B84206D14FF6FF57394046F480773943CC
:1052500005E04FF2FF57394044F4807739438283A9
:105260000184F0BD028B4FF2FF331A400283028BA0
:105270004FF6FF7303EA01231A4302837047F0B528
:105280000C461546002200210026078C4FF6EF7CC5
:1052900007EA0C070784028B018C4FF6FF7707EAB9
:1052A000041640F6FF473A404FF6FF7707EA033708
:1052B0003A434FF6FF7707EA05273A438F4FB84244
:1052C0000ED08F4FB8420BD0B0F1804F08D08D4F29
:1052D000B84205D08C4FB84202D08C4FB84206D1AC
:1052E0004FF6DF77394046F01007394305E04FF6B7
:1052F0005F77394044F01007394302830184F0BDE1
:10530000028B4FF6F3731A400283028B0A43028327
:105310007047F0B50C46154600220021068C4FF66A
:10532000FE773E400684028B018C4FF60C763240AD
:105330007E1C06EA03162E433243704EB0420ED056
:105340006F4EB0420BD0B0F1804F08D06D4EB042DE
:1053500005D06D4EB04202D06C4EB04206D14FF631
:10536000FD76314044F00106314305E04FF6F57615
:10537000314044F00106314302830184F0BD70B531
:1053800005460C465D4885420ED05D4885420BD0EF
:10539000B5F1804F08D05B48854205D05A48854218
:1053A00002D05A48854200D100E000BF208850B9A1
:1053B0002389A28861882846FFF7ABFFE188284649
:1053C000FFF79EFF25E0208804280AD12389A288C0
:1053D00061882846FFF753FFE1882846FFF742FF20
:1053E00017E0208808280AD12389A28861882846E6
:1053F000FFF7FBFEE1882846FFF7EEFE09E0238970
:10540000A28861882846FFF7A6FEE1882846FFF7B4
:1054100095FE70BD2DE9F04105460C46002601279A
:10542000608808B9022600E00026A088012801D182
:10543000022700E001272088A0B92389A28861887B
:105440002846FFF766FFE1882846FFF759FF2389C2
:105450003A4631462846FFF712FFE1882846FFF713
:1054600001FF13E02389A28861882846FFF707FF20
:10547000E1882846FFF7F6FE23893A46314628465A
:10548000FFF747FFE1882846FFF73AFFBDE8F081C4
:105490000A884B881A438B881A43CB881A430B8996
:1054A0001A434B891A438B891A43A0F8442070474A
:1054B0004FF6FF71818000210180C180418001721F
:1054C00070470021018041808180C180018141813C
:1054D0008181C1817047002101804180012181804B
:1054E0000021C180018170470021018041808180BD
:1054F000C18001814181818170470000002C014001
:10550000003401400004004000080040000C00404E
:1055100021B1028842F00102028004E002884FF6C5
:10552000FE731A400280704731B1B0F8442042F453
:105530000042A0F8442005E0B0F84420C2F30E0277
:10554000A0F8442070471AB183890B43838102E09D
:1055500083898B43838170478182704741EA0203CC
:10556000A0F8483070471AB183890B43838102E069
:1055700083898B438381704701894FF6F87211400C
:10558000018170470A46002101894FF68F73194047
:1055900011430181704730B504460D462946204627
:1055A000FFF7F0FF208940F00700208130BD2DE992
:1055B000F04104460D4616461F46602D06D13B4677
:1055C000012231462046FFF75AFE05E03B46012204
:1055D00031462046FFF79DFE29462046FFF7D2FFC1
:1055E000208940F007002081BDE8F08130B50C46ED
:1055F00000210189C9B24FF6FF7505EA032515435D
:1056000025432943018130BD2DE9F04105460E4671
:1056100017469846002443463A4631462846FFF747
:10562000E5FF2C894FF6F870044044F007044FF66C
:105630008F70044044F070042C81BDE8F081F0B517
:1056400004460D4616461F463B463246294620462E
:10565000FFF7CCFF208940F480402081F0BD018518
:10566000828270470A46002101884FF68F731940E5
:10567000114301807047F0B50C4615461E460021C7
:10568000002200230189028B038C4FF6F877394002
:1056900021434FF6FC473A4040F201173A434FF698
:1056A000DD773B404FF6FF7707EA06172F433B4372
:1056B000018102830384F0BD0A460021018B4FF66D
:1056C0008F7319401143018370470A460021018BF3
:1056D00048F6FF7319404FF6FF7303EA022319439C
:1056E000018370470A460021818B4FF68F73194062
:1056F0001143818370470A460021818B48F6FF736E
:1057000019404FF6FF7303EA022319438183704760
:1057100021B1028842F08002028004E002884FF644
:105720007F731A400280704721B1828842F00402E0
:10573000828004E082884FF6FB731A4082807047B3
:1057400021B1828842F00802828004E082884FF60C
:10575000F7731A408280704721B1828842F00102BB
:10576000828004E082884FF6FE731A408280704780
:105770000A460021018B4FF6F7731940114301834C
:1057800070470A460021018B4FF2FF7319404FF614
:10579000FF7303EA02231943018370470A4600217D
:1057A000818B4FF6F77319401143818370470A4686
:1057B0000021818B4FF2FF7319404FF6FF7303EA0C
:1057C00002231943818370470A460021018B4FF65B
:1057D000FB7319401143018370470A460021018B76
:1057E0004FF6FF3319404FF6FF7303EA02231943C4
:1057F000018370470A460021818B4FF6FB731940E5
:105800001143818370470A460021818B4FF6FF3395
:1058100019404FF6FF7303EA02231943818370474F
:105820000A460021018B4FF67F7319401143018313
:1058300070470A460021018BC1F30E014FF6FF733A
:1058400003EA02231943018370470A460021818B32
:105850004FF67F7319401143818370470A46002138
:10586000818BC1F30E014FF6FF7303EA0223194344
:10587000818370470A460021018C4FF6FD73194061
:105880001143018470470A460021018C4FF6F773DB
:1058900019401143018470470A460021018C4FF6DC
:1058A000DF7319404FF6FF7303EA021319430184B3
:1058B00070470A460021018C4FF67F7319404FF65E
:1058C000FF7303EA02131943018470470A4600215B
:1058D000018C4FF6FF5319404FF6FF7303EA022382
:1058E0001943018470470A460021018C4FF2FF736F
:1058F00019404FF6FF7303EA0223194301847047EE
:105900000A460021018C4DF6FF7319404FF6FF73D4
:1059100003EA023319430184704730B500230124A0
:105920008C40A3B2048C9C430484048C02FA01F5DD
:10593000ADB22C43048430BD30B5002304248C4028
:10594000A3B2048C9C430484048C02FA01F5ADB22A
:105950002C43048430BD70B5034600200024184653
:10596000183001258D40ACB21D8CA5431D8409B1B2
:10597000082909D100EB6100056825F07005056074
:105980000568154305600EE00D1FC5F34E0528445C
:10599000056825F4E045056005684FF6FF7606EAE0
:1059A00002263543056070BD21B1028842F0020233
:1059B000028004E002884FF6FD731A4002807047AF
:1059C00021B1028842F00402028004E002884FF60E
:1059D000FB731A400280704721B1828842F0800236
:1059E000828004E082884FF67F731A40828070477D
:1059F00002884FF6F7731A40028002880A43028039
:105A0000704782884FF68F731A40828082880A43DB
:105A10008280704702894FF6F8731A40028102892A
:105A20000A430281704702894FF67F731A40028150
:105A300002890A43028170478184704781857047DB
:105A4000818670470187704781877047A0F84010B2
:105A5000704702884FF6FF431A40028002880A43CB
:105A6000028070470146888E70470146088F704754
:105A70000146888F70470146B1F8400070470146E3
:105A8000888C70470146088D704702460020138AB3
:105A90000B400BB1012000E000207047CA43028296
:105AA000704730B50246002000230024158A05EA1D
:105AB0000103958905EA010413B10CB1012000E04E
:105AC000002030BDCA4302827047000010B5044672
:105AD000FB48844209D101218803FFF79FF8002188
